:020000040800F2
:1000000008040020D9000008B9080008C507000846
:1000100000000000000000000000000000000000E0
:100020000000000000000000000000005D09000862
:100030000000000000000000BB080008490A00089A
:10004000EB000008EB000008EB000008EB000008E4
:10005000EB000008EB000008EB000008EB000008D4
:10006000EB000008EB000008EB000008EB000008C4
:10007000EB000008EB000008EB000008EB000008B4
:10008000EB000008EB000008EB000008EB000008A4
:10009000EB000008EB000008EB000008EB00000894
:1000A000EB000008EB000008EB000008EB00000884
:1000B000EB000008EB000008EB000008EB00000874
:1000C0000448854600F016F800480047E50A000895
:1000D000C046C04608040020044880470448004742
:1000E000FEE7FEE7FEE7FEE7FEE7FEE74D0A000853
:1000F000C1000008064C0125064E05E0E36807CC68
:100100002B430C3C98471034B442F7D3FFF7DCFF85
:10011000D00B0008F00B000800E0401E0028FCD1C6
:1001200070470000F8B506460C46002700200090F6
:100130000025C748864208D0C648864205D0C64832
:10014000864202D0C548864200D104E0E022C4497C
:10015000C4A000F0C4FCBE48864208D1208880B20A
:10016000002804D0C64920680843884224D0B948F2
:10017000864208D1208880B2002804D0C049206877
:100180000843884218D0B448864209D10721490360
:1001900020680840002803D02068084388420BD01C
:1001A000AE48864209D1C72120680840002804D003
:1001B00020680843C72800D104E0E122A849B1A083
:1001C00000F08DFC6068002826D06068012823D0EC
:1001D0006068112820D0606802281DD0606812284D
:1001E0001AD0B5496068884216D0B4496068884220
:1001F00012D0B349606888420ED0B2496068884224
:100200000AD0B1496068884206D0B0496068884227
:1002100002D06068032800D104E0E3229049ACA03A
:1002200000F05DFCA068002805D0A068012802D07D
:10023000A068022800D104E0E4228949AFA000F0C0
:100240004EFCE068002802D0E068012800D104E0FC
:10025000E5228349B4A000F042FC2069002802D0C6
:100260002069012800D104E0E6227D49B9A000F010
:1002700036FCE6E00121B940206808400090009873
:1002800000287DD06068022802D06068122829D139
:1002900060690F2800D804E0F4227149B9A000F089
:1002A0001EFC0820384000280ED0756A7807C10E61
:1002B0000F208840294681430D467907C90E6069A1
:1002C0008840054375620DE0356A7807C10E0F203E
:1002D0008840294681430D467907C90E60698840E8
:1002E000054335626068012808D06068112805D090
:1002F0006068022802D0606812280BD1756801205E
:10030000B840294681430D462079C006C00FB84049
:10031000054375603568790003208840294681438C
:100320000D4620798007800F7900884005433560AD
:10033000F568790003208840294681430D467900FD
:10034000A06888400543F560B5680120B84029469B
:1003500081430D46E068B8400543B560F56A012069
:10036000B840294681430D462069B8400543F562EF
:100370000121090760680840884261D18C4800E08B
:100380005EE0B90889004558B807010F0F20884082
:10039000294681430D462E48864201D100200AE0BD
:1003A0002C48864201D1012005E02B48864201D12C
:1003B000022000E00520B907090F884005437C486A
:1003C000B908890045507B48056829460098814353
:1003D0000D460121090460680840884201D1009857
:1003E00005437448056045682946009881430D46D9
:1003F0000121490460680840884201D10098054302
:100400006C48456085682946009881430D46012166
:10041000090560680840884201D100980543654895
:100420008560C5682946009881430D46012149052C
:1004300060680840884201D1009805435D48C56066
:100440007F1C2068F840002800D013E7F8BD0000AA
:1004500000080140000C014000100140001C014058
:10046000400B000849535F4750494F5F414C4C5F78
:10047000504552495048284750494F7829000000BC
:10048000FFFF000049535F4750494F5F50494E5F9F
:10049000415641494C41424C45284750494F782CE0
:1004A000204750494F5F496E697453747275637485
:1004B0002D3E50696E29000000001110000021102F
:1004C0000000311000201310000012100000321044
:1004D00049535F4750494F5F4D4F44452847504966
:1004E0004F5F496E69745374727563742D3E475043
:1004F000494F5F4D6F6465290000000049535F4715
:1005000050494F5F50554C4C284750494F5F496EFA
:1005100069745374727563742D3E4750494F5F5030
:10052000756C6C290000000049535F4750494F5FCC
:100530005350454544284750494F5F496E697453AD
:1005400074727563742D3E4750494F5F53706565F3
:100550006429000049535F4750494F5F4355525249
:10056000454E54284750494F5F496E697453747221
:100570007563742D3E4750494F5F43757272656EC7
:100580007429000049535F4750494F5F414628474F
:1005900050494F5F496E69745374727563742D3E90
:1005A0004750494F5F416C7465726E6174652900F4
:1005B0000800014000040140054901600F2141612C
:1005C0000021416081600121C1600021016170470B
:1005D000FFFF000070B504460D462648844208D04F
:1005E0002548844205D02548844202D024488442CC
:1005F00000D105E0FF22D232224923A000F06FFA99
:100600001C48844207D1A8B2002804D025482843BA
:100610002449884224D01848844207D1A8B200282F
:1006200004D0204828431F49884219D013488442E7
:100630000BD1072040032840002806D007204003A4
:1006400028430721490388420AD00D48844208D133
:10065000C7202840002804D0C7202843C72800D13D
:1006600005E0FF22D33207490FA000F038FAA56257
:1006700070BD000000080140000C01400010014066
:10068000001C0140400B000849535F4750494F5F31
:10069000414C4C5F504552495048284750494F788B
:1006A00029000000FFFF000049535F4750494F5F9A
:1006B00050494E5F415641494C41424C45284750B4
:1006C000494F782C2050696E2900000070B504460F
:1006D0000D462648844208D02548844205D0254846
:1006E000844202D02448844200D105E0FF22C33274
:1006F000224923A000F0F3F91C48844207D1A8B294
:10070000002804D0254828432449884224D018488A
:10071000844207D1A8B2002804D0204828431F49AA
:10072000884219D0134884420BD107204003284047
:10073000002806D0072040032843072149038842A8
:100740000AD00D48844208D1C7202840002804D090
:10075000C7202843C72800D105E0FF22C43207493B
:100760000FA000F0BCF9A56170BD000000080140B9
:10077000000C014000100140001C0140400B00082B
:1007800049535F4750494F5F414C4C5F5045524978
:100790005048284750494F7829000000FFFF0000CB
:1007A00049535F4750494F5F50494E5F4156414959
:1007B0004C41424C45284750494F782C2050696E97
:1007C0002900000000BFFEE730B587B004460D46A3
:1007D0002148844208D02148844205D020488442E0
:1007E00002D02048844200D104E04D221EA122A064
:1007F00000F075F91848844204D10121042000F06A
:100800005DF819E01548844204D10121082000F068
:1008100055F811E01248844204D10121102000F063
:100820004DF809E00F48844204D10121802000F0F6
:1008300045F801E007B030BD1648854209DC01A843
:10084000FFF7BAFE01950120029001A92046FFF7AB
:1008500069FC00BFEEE7000000080140000C014009
:1008600000100140001C01402E2E5C7372635C6D11
:1008700061696E2E6300000049535F4750494F5F26
:10088000414C4C5F504552495048284750494F7899
:1008900029000000FFFF000070B504460D46294600
:1008A0002046FFF797FE70BD70B504460D462946F9
:1008B0002046FFF70BFF70BD7047704770B50446C8
:1008C0000D4612482040002802D1002C00D004E040
:1008D0000F4A104910A000F002F9002D01D0012D9F
:1008E00000D105E00A4A521C0A4914A000F0F7F8AA
:1008F000002D05D01848806920431749886104E01D
:1009000015488069A0431449886170BD6289FFFF62
:100910007C040000880B000849535F5243435F4149
:100920005042325F504552495048285243435F413C
:1009300050423250657269706829000049535F4621
:10094000554E4354494F4E414C5F535441544528F2
:10095000436D642900000000001002407047000051
:1009600010B5002000220021334B1B6801242343D3
:10097000314C236000BF304B1B68022423405908D0
:10098000521C002903D105231B029A42F3D12A4BA2
:100990001B68022423405908002901D100BFFEE74B
:1009A000264B1B689B089B00244C236023461B6836
:1009B00002242343214C23601F4B5B681E4C636061
:1009C00023465B680324A405A3431B4C63602346B2
:1009D0005B681B4C2340184C63602346586800BF7B
:1009E00003231B04184300BF00BF234658601B6845
:1009F000012424062343104C236000BF0E4B1B68C8
:100A0000012464062340002BF8D00B4B5B68DB0805
:100A1000DB00094C636023465B6802242343064CD9
:100A2000636000BF044B5B68064C23400124A403B1
:100A3000A342F7D110BD0000001002400020024088
:100A4000FFFFC0FE08C000007047000010B5174847
:100A500000680121084315490860084640681449A8
:100A600008401249486008460068124908400F498A
:100A70000860084600680121890588430B49086021
:100A8000084640680C490840084948600720C002F1
:100A9000C862BF200004886008480068102108432D
:100AA00006490860FFF75CFF10BD0000001002401F
:100AB0000000FF21FFFFF6FEFFFF00FE00200240C6
:100AC00002E008C8121F08C1002AFAD17047704717
:100AD000002001E001C1121F002AFBD1704700BFB6
:100AE000FEE70000C2211448FFF76EFE23E08021DC
:100AF0001148FFF7D9FE42210F48FFF7CDFE0F48FE
:100B00000068FFF709FB40210B48FFF7CDFE82216B
:100B10000948FFF7C1FE09480068FFF7FDFA022106
:100B20000548FFF7C1FEC0210348FFF7B5FE0348A3
:100B30000068FFF7F1FADAE7000C0140000000203E
:100B40002E2E5C2E2E5C2E2E5C2E2E5C2E2E5C2EDF
:100B50002E5C6669726D776172655C6E33326730E8
:100B600033305F7374645F7065726970685F64725C
:100B7000697665725C7372635C6E333267303330F2
:100B80005F6770696F2E63002E2E5C2E2E5C2E2EFA
:100B90005C2E2E5C2E2E5C2E2E5C6669726D77614B
:100BA00072655C6E3332673033305F7374645F70CC
:100BB00065726970685F6472697665725C7372638E
:100BC0005C6E3332673033305F7263632E630000D4
:100BD000F00B00080000002004000000C00A00081C
:100BE000F40B00080400002004040000D00A0008F0
:040BF000FFFF3F00C4
:04000005080000C12E
:00000001FF
